:020000040800F2
:10000000005000208D020008D5020008D50200082B
:10001000D5020008D5020008D50200080000000043
:10002000000000000000000000000000D5020008F1
:10003000D502000800000000D5020008D502000823
:10004000D5020008D5020008D5020008D502000834
:10005000D5020008D5020008D5020008D502000824
:10006000D5020008D5020008D5020008D502000814
:10007000D5020008D5020008D5020008D502000804
:10008000D5020008D5020008D5020008D5020008F4
:10009000D5020008D5020008D5020008D5020008E4
:1000A000D5020008D5020008D5020008D5020008D4
:1000B000D5020008D5020008D5020008D5020008C4
:1000C000D5020008D5020008D5020008D5020008B4
:1000D000D5020008D5020008D5020008D5020008A4
:1000E000D5020008D5020008D50200080000000073
:1000F0000000000000000000000000000000000000
:0C01000000000000000000005FF808F1A3
:10010C000348044B834202D0034B03B1184770479A
:10011C00300400203004002000000000054806498F
:10012C000B1AD90F01EBA301491002D0034B03B1F9
:10013C0018477047300400203004002000000000F5
:10014C0010B5064C237843B9FFF7DAFF044B13B113
:10015C000448AFF300800123237010BD300400204D
:10016C00000000009806000808B5044B1BB10449B8
:10017C000448AFF30080BDE80840CFE70000000062
:10018C003404002098060008002301461A4618463D
:10019C0000F03AB838B5084B084D5B1B9C1007D0E3
:1001AC00043B1D44013C55F804399847002CF9D107
:1001BC00BDE8384000F070BAC0060008BC06000864
:1001CC0070B50D4E0D4D761BB61006D0002455F8AB
:1001DC00043B01349847A642F9D1094E094D00F071
:1001EC0055FA761BB61006D0002455F8043B0134A2
:1001FC009847A642F9D170BDB4060008B4060008B1
:10020C00BC060008B406000870B5174C2568D5F874
:10021C004841DCB165681F2D23DC80B14FF0010C27
:10022C0004EB850ECEF88820D4F888610CFA05F220
:10023C0016430228C4F88861CEF808310BD06B1C29
:10024C0002356360002044F8251070BD05F5A674D6
:10025C00C5F84841DEE7D4F88C311343C4F88C312F
:10026C00EDE74FF0FF3070BDB0060008024B13B144
:10027C000248FFF789BF704700000000A101000889
:10028C0000F060F80B480C490C4A002302E0D458EB
:10029C00C4500433C4188C42F9D3094A094C0023C6
:1002AC0001E013600432A242FBD3FFF789FF00F098
:1002BC001DF870470000002030040020C006000824
:1002CC00300400204C040020FEE780B483B000AF63
:1002DC00786000E000BF7B685A1E7A60002BF9D171
:1002EC0000BF00BF0C37BD4680BC704780B586B0E0
:1002FC0000AF114B9B69104A43F0100393610E4BF6
:10030C009B6903F010037B607B684FF40053BB6068
:10031C000123FB6001237B6107F1080319460748A1
:10032C0000F016F80648FFF7D0FF4FF400510348D1
:10033C0000F092F9F6E700BF0010024000100140F7
:10034C00A086010080B400AF00BFBD4680BC7047E2
:10035C0080B48BB000AF7860396000237B620023DF
:10036C003B6269E101227B6A02FA03F3FB613B68A1
:10037C001B68FA691340BB61BA69FB699A4240F089
:10038C0058813B685B689A4A93425ED0984A934284
:10039C0075D8984A934258D0964A93426FD8964A49
:1003AC00934252D0944A934269D8944A93424CD087
:1003BC00924A934263D8924A934246D0904A9342CF
:1003CC005DD8122B2AD8122B59D801A252F823F03F
:1003DC005704000831040008430400088504000891
:1003EC008B0400088B0400088B0400088B040008A5
:1003FC008B0400088B0400088B0400088B04000895
:10040C008B0400088B0400088B0400088B04000884
:10041C008B040008390400084D040008794A934203
:10042C0013D02CE03B68DB683B6229E03B68DB685F
:10043C0004333B6224E03B68DB6808333B621FE01B
:10044C003B68DB680C333B621AE03B689B68002B13
:10045C0002D104233B6213E03B689B68012B05D15E
:10046C0008233B627B68FA691A6109E008233B6246
:10047C007B68FA695A6103E000233B6200E000BF2D
:10048C00BB69FF2B01D87B6801E07B6804337B617F
:10049C00BB69FF2B02D87B6A9B0002E07B6A083B9E
:1004AC009B003B617B691A680F213B6901FA03F3DE
:1004BC00DB431A40396A3B6901FA03F31A437B693F
:1004CC001A603B685B6803F08053002B00F0B1802E
:1004DC004D4B9B694C4A43F0010393614A4B9B691A
:1004EC0003F00103BB60BB68484A7B6A9B0802337C
:1004FC0052F82330FB607B6A03F003039B000F224E
:10050C0002FA03F3DB43FA681340FB607B68404A52
:10051C00934213D07B683F4A93420DD07B683E4A8E
:10052C00934207D07B683D4A934201D1032306E0F6
:10053C00042304E0022302E0012300E000237A6A92
:10054C0002F0030292009340FA681343FB602F49B8
:10055C007B6A9B080233FA6841F823203B685B688E
:10056C0003F48013002B06D02D4B9A682C49BB69E1
:10057C0013438B6006E02A4B9A68BB69DB4328491E
:10058C0013408B603B685B6803F40013002B06D0B0
:10059C00234BDA682249BB691343CB6006E0204B3E
:1005AC00DA68BB69DB431E491340CB603B685B6870
:1005BC0003F40033002B06D0194B5A681849BB6959
:1005CC0013434B6006E0164B5A68BB69DB43144976
:1005DC0013404B603B685B6803F48033002B21D0E5
:1005EC000F4B1A680E49BB6913430B6021E000BF27
:1005FC000000321000003110000022100000211009
:10060C000000121000001110001002400000014008
:10061C0000080140000C0140001001400014014092
:10062C00000401400B4B1A68BB69DB4309491340BA
:10063C000B607B6A01337B623B681A687B6A22FA27
:10064C0003F3002B7FF48EAE00BF00BF2C37BD46EA
:10065C0080BC70470004014080B485B000AF786066
:10066C000B467B807B68DB68FB607A88FB681340F9
:10067C001A04FB68D9437B880B401A437B681A61C8
:10068C0000BF1437BD4680BC70470000F8B500BFF2
:10069C00F8BC08BC9E467047F8B500BFF8BC08BC57
:0406AC009E467047AF
:0406B000080000201E
:0806B40079020008750100083D
:0406BC004D010008E4
:1006C000080000200000000000000000F4020020EC
:1006D0005C030020C40300200000000000000000B4
:1006E000000000000000000000000000000000000A
:1006F00000000000000000000000000000000000FA
:1007000000000000000000000000000000000000E9
:1007100000000000000000000000000000000000D9
:1007200000000000000000000000000000000000C9
:1007300000000000000000000000000000000000B9
:1007400000000000000000000000000000000000A9
:100750000000000000000000000000000000000099
:100760000000000000000000000000000000000089
:1007700001000000000000000E33CDAB34126DE626
:10078000ECDE05000B00000000000000000000008F
:100790000000000000000000000000000000000059
:1007A0000000000000000000000000000000000049
:1007B0000000000000000000000000000000000039
:1007C0000000000000000000000000000000000029
:040000050800028D60
:00000001FF
